:100000000EC01DC01CC01BC01BC019C018C017C02B
:1000100016C015C014C013C012C011C010C01124E6
:100020001FBECFE5D2E0DEBFCDBF20E0A0E6B0E04E
:1000300001C01D92A436B207E1F727D0AFC0E0CFD0
:100040001F920F920FB60F9211248F939F93AF932D
:10005000BF938091600090916100A0916200B09187
:1000600063009F5FAF4FBF4F80936000909361002C
:10007000A0936200B0936300BF91AF919F918F9165
:100080000F900FBE0F901F90189510926000109265
:100090006100109262001092630080B7897F80BF78
:1000A00080B7816080BF89B7846089BF87B38E6065
:1000B00087BBC39A78941FBC89E4C82E88E0D82EE9
:1000C000E12CF12CD0E4CBE186B3382F307184FDE4
:1000D000FBCFB49BFECF2FB5809160009091610063
:1000E000A0916200B0916300820F911DA11DB11D0E
:1000F0001FBC10926000109261001092620010927A
:100100006300883729E69207A105B10518F1813906
:1001100022EB920728E0A207B10520F080E992EBDC
:10012000A8E0B0E0BC01CD0168577946810991098A
:10013000A701960111D0C3983FB9DEB9CDB9769B1E
:10014000FDCF8FB12FB9DEB9CDB9769BFDCF8FB181
:10015000C39ABACF20E0EFCFA1E21A2EAA1BBB1B95
:10016000FD010DC0AA1FBB1FEE1FFF1FA217B30783
:10017000E407F50720F0A21BB30BE40BF50B661F99
:10018000771F881F991F1A9469F76095709580955D
:1001900090959B01AC01BD01CF010895F894FFCF6C
:00000001FF
